:020000040800F2
:1000000008200020CD040008D5020008D70200080F
:10001000DB020008DF020008E30200080000000025
:10002000000000000000000000000000E7020008DF
:10003000E90200080000000083770008C92B0008CF
:10004000E7040008E7040008E7040008E7040008E4
:10005000E7040008E7040008E7040008E7040008D4
:10006000E7040008E7040008E7040008E7040008C4
:10007000E7040008E7040008E7040008E7040008B4
:10008000E7040008E7040008E7040008E7040008A4
:10009000E7040008E7040008E7040008E704000894
:1000A000E7040008E7040008E7040008E704000884
:1000B000BD450008E7040008E7040008E70400085D
:1000C000E7040008E7040008E7040008E704000864
:1000D000E70400083F2F0008E7040008E7040008D1
:1000E000E7040008E7040008E704000800F002F84D
:1000F00000F03AF80AA090E8000C82448344AAF188
:100100000107DA4501D100F02FF8AFF2090EBAE885
:100110000F0013F0010F18BFFB1A43F0010318473B
:10012000EC9000000C910000103A24BF78C878C110
:10013000FAD8520724BF30C830C144BF04680C60ED
:10014000704700000023002400250026103A28BF35
:1001500078C1FBD8520728BF30C148BF0B60704739
:100160001FB51FBD10B510BD07F0BFFB1146FFF74F
:10017000F7FF00F009F807F0DDFB03B4FFF7F2FF2B
:1001800003BC07F0E5FB000010B586B0142101A800
:1001900007F081FB02F024FD4FF4A06000F0B6F9F7
:1001A0004FF4E13002F0B6FD02F098FD05F01AF8C8
:1001B00005F090F904F07CFA05F0F8F804F09CFBE7
:1001C00004F04EFD03F0E8FA03F041FD002003F0D7
:1001D000ADFD01A803F009F932A101A803F01AF955
:1001E000022301AA0321232003F007FE4FF47A70B3
:1001F00002F047FD4FF47A7002F043FD4FF47A703D
:1002000002F03FFD002003F091FD01A803F0EDF89E
:1002100027A101A803F0FEF82849887803F02EF9F9
:100220000446214601A803F0F5F8022301AA194665
:10023000082003F0E2FD01A803F0D7F820A101A8EF
:1002400003F0E8F81D49C87803F018F90446214680
:1002500001A803F0DFF8022301AA0421082003F01B
:10026000CCFD4FF47A7002F00CFD4FF47A7002F07E
:1002700008FD40F2CF2140F2CF7003F0A1FB40F225
:10028000CF2141F26F7004F06BF905F083FB0A2374
:100290000E4A00210E4806F02DFE05F09DFC0020C0
:1002A00006B010BD484359205445414D00000000A0
:1002B0004F726967456C65763A200000C8010020DE
:1002C0004F726967466C61743A2000000408002090
:1002D000C5560008704700BFFEE700BFFEE700BF3D
:1002E000FEE700BFFEE77047704700000CB5002036
:1002F000019000906C48006840F480306A490860C2
:1003000000BF6948006800F4003000900198401C6C
:100310000190009818B90198B0F5A06FF1D162482A
:10032000006800F4003010B10120009001E00020CE
:1003300000900098012843D15C48006840F010000C
:100340005A4908600846006820F003000860084623
:10035000006840F002000860534840685249486015
:100360000846406848600846406840F4806048603D
:100370000846406820F47C1048600846406840F415
:10038000E81048600846006840F08070086000BFD0
:100390004548006800F000700028F9D042484068E5
:1003A00020F00300404948600846406840F00200E1
:1003B000486000BF3C48406800F00C000828F9D1B4
:1003C0000CBD10B5FFF792FF10BD10B536480068A0
:1003D00040F001003449086008464068344908404C
:1003E0003149486008460068324908402E49086093
:1003F0000846006820F4802008600846406820F421
:10040000FE0048604FF41F008860FFF7DAFF4FF0EE
:1004100000602949086010BD10B5002100200022AD
:10042000214B5B6803F00C0121B1042906D0082997
:1004300028D107E0214B224C236027E01F4B204CA2
:10044000236023E0184B5B6803F47010164B5B6865
:1004500003F48032022303EB904022B9194B43434B
:10046000174C23600DE0104B5B6803F4003323B19D
:10047000144B4343124C236003E0104B4343104C96
:10048000236003E00D4B0E4C236000BF00BF064B02
:100490005B68C3F303130C4CE15C094B1B68CB4056
:1004A000074C236010BD00000010024000200240F5
:1004B0000000FFF8FFFFF6FE08ED00E000127A00F2
:1004C0000000002000093D0004000020094880478A
:1004D00009480047FEE7FEE7FEE7FEE7FEE7FEE726
:1004E000FEE7FEE7FEE7FEE704480549054A064B3E
:1004F00070470000CB030008ED000008081A002038
:1005000008200020081C0020081C0020314901435D
:10051000314A1160704770B5002100230F22C47862
:1005200004B32D4C246804F4E064C4F5E064210AAB
:10053000C1F10403CA40447804FA03F184781440FA
:1005400021430901254C0678A155047804F01F05C4
:100550000124AC4005786D11AD0005F1E025C5F82A
:10056000004109E0047804F01F050124AC401C4D53
:100570000678761145F8264070BD1A4A0A400243B3
:10058000154B1B1F1A60704739B1134A121D1268B0
:100590000243114B1B1D1A6006E00F4A121D126820
:1005A00082430D4B1B1D1A607047042808D14FF081
:1005B000E021096941F004014FF0E022116107E0F8
:1005C0004FF0E021096921F004014FF0E0221161B0
:1005D000704700000000FA050CED00E000E400E0C8
:1005E00080E100E080FFFF1F10B50446CC48844244
:1005F00008D10121042000F02DFB0021042000F08F
:1006000029FB46E0C748844208D10121082000F0B8
:1006100021FB0021082000F01DFB3AE0C248844283
:1006200008D10121102000F015FB0021102000F05E
:1006300011FB2EE0BD48844208D10121202000F0AA
:1006400009FB0021202000F005FB22E0B84884428D
:1006500008D10121402000F0FDFA0021402000F0E7
:10066000F9FA16E0B348844208D10121802000F055
:10067000F1FA0021802000F0EDFA0AE0AE48844251
:1006800007D10121801500F0E5FA0021A01500F046
:10069000E1FA10BD10B50121084600F0DBFA002197
:1006A000012000F0D7FA10BD2DE9F04102460025E7
:1006B0000026002000230024002791F803C00CF03E
:1006C0000F0591F803C00CF0100CBCF1000F03D023
:1006D00091F802C04CEA050591F800C0BCF1000F8A
:1006E00031D0146800202BE04FF0010C0CFA00F31D
:1006F000B1F800C00CEA03069E4220D183004FF0FF
:100700000F0C0CFA03F7BC4305FA03FC4CEA040493
:1007100091F803C0BCF1280F06D14FF0010C0CFA80
:1007200000FCC2F814C00AE091F803C0BCF1480F05
:1007300005D14FF0010C0CFA00FCC2F810C0401CAF
:100740000828D1D31460B1F800C0BCF1FF0F34DD2C
:10075000546800202EE000F1080C4FF0010808FA60
:100760000CF3B1F800C00CEA03069E4221D18300CD
:100770004FF00F0C0CFA03F7BC4305FA03FC4CEAEC
:10078000040491F803C0BCF1280F05D100F1080C56
:1007900008FA0CF8C2F8148091F803C0BCF1480FB5
:1007A00007D100F1080C4FF0010808FA0CF8C2F864
:1007B0001080401C0828CED35460BDE8F0814FF66D
:1007C000FF710180022181700421C17070470246CF
:1007D000002093680B400BB1012000E0002070471F
:1007E0000146886880B2704702460020D3680B40FB
:1007F0000BB1012000E0002070470146C86880B2BC
:10080000704701617047416170470AB1016100E0C2
:1008100041617047C16070474FF480320A43826182
:100820008161826182698269704702460020434B80
:1008300018684FF68073184040EA021008433F4B97
:10084000186070473E49C8617047F0B50A460023FA
:1008500000240021002500F00046B6F1004F02D12F
:10086000364EF16901E0354E7168C0F3034583B23D
:1008700000F44016B6F5401F08D121F070612F4EEC
:10088000766826F070662D4F7E6012E000F48016C8
:10089000B6F5801F06D1032606FA05F4A14341F000
:1008A000706106E0460D360103FA06F6B14341F0E9
:1008B000706122B1460D360103FA06F6314300F0AD
:1008C0000046B6F1004F02D11C4EF16101E01B4E13
:1008D0007160F0BD30B500228B071C0F0F2303FAA7
:1008E00004F2164B08338C1053F824309343134C06
:1008F00008348D1044F8253023468C1053F82430EA
:100900008C07240F00FA04F423430C4C08348D1098
:1009100044F8253030BD0A49DC31086070470000DA
:1009200000080140000C014000100140001401408B
:1009300000180140001C014000200140000001405F
:1009400000002042DF48006840F00100DD490860F7
:1009500008464068DC490840DA49486008460068B3
:10096000DA490840D74908600846006820F480202A
:1009700008600846406820F4FE0048604FF41F00FD
:1009800088607047CF49096821F48031CD4A1160F1
:100990001146096821F480211160B0F5803F03D031
:1009A000B0F5802F0ED106E0C649096841F48031C8
:1009B000C44A116007E0C349096841F4A021C14A53
:1009C000116000E000BF00BF704710B50146002273
:1009D000002300204A11012A02D1BA4C236806E004
:1009E000022A02D1B74C236A01E0B64C636A01F0D7
:1009F0001F02012494401C400CB1012000E00020A3
:100A000010BD38B5002000900024002500BF312023
:100A1000FFF7DBFF05460098401C00900098B0F5FA
:100A2000A06F01D0002DF2D03120FFF7CEFF08B12A
:100A3000012400E00024204638BD01460020A14AE0
:100A4000106820F0F80040EAC10010607047A0492B
:100A500008607047024600209A4B586820F47C10CA
:100A600042EA01031843974B58607047984908665B
:100A7000704701460020934A506820F00300084365
:100A8000506070478F48406800F00C007047014686
:100A900000208C4A506820F0F000084350607047F6
:100AA00001460020874A506820F4E0600843506007
:100AB000704701460020834A506820F4605040EAA5
:100AC000C1005060704729B17E4A527A02437D4B83
:100AD0005A7204E07B4A527A82437A4B5A727047C8
:100AE0007B49D8310860704701460020754A50683C
:100AF00020F440400843506070470021714A203282
:100B00001170704A82F82010012802D004280AD1FE
:100B100004E001216B4A2032117005E00521694A89
:100B20002032117000E000BF00BF704769490860C3
:100B300070476449096A0143624A11627047654916
:100B400044390860704730B500210022002400239A
:100B50005C4D6D6805F00C0121B1042905D0082910
:100B600023D105E05C4D056022E05B4D05601FE090
:100B7000544D6D6805F47012524D6D6805F4803463
:100B8000022505EB92421CB9544D554305600BE01C
:100B90004C4D6D6805F400351DB1504D5543056051
:100BA00002E04D4D5543056002E04B4D056000BF2E
:100BB00000BF444D6D6805F0F0010909484D6B5CBC
:100BC0000568DD4045603F4D6D6805F4E061090A48
:100BD000434D6B5C4568DD4085603A4D6D6805F4BA
:100BE0006051C90A3E4D6B5C4568DD40C560354DBE
:100BF0006D6805F44041890B3A4D6B5CC568B5FBE7
:100C0000F3F5056130BD29B12E4A526902432D4BDF
:100C10005A6104E02B4A526982432A4B5A61704759
:100C200029B1284A92690243264B9A6104E0254A79
:100C300092698243234B9A61704729B1214AD26954
:100C40000243204BDA6104E01E4AD26982431D4B05
:100C5000DA61704729B11B4AD2680243194BDA6046
:100C600004E0184AD2688243164BDA60704729B113
:100C7000144A12690243134B1A6104E0114A1269C3
:100C80008243104B1A61704712494039086070471F
:100C90000F49C86470470B49C87170470948406ADA
:100CA00040F0807007494862704701460020054ABD
:100CB00092680A400AB1012000E000207047014913
:100CC00088727047001002400000FFF8FFFFF6FE38
:100CD000000042428004424200127A0000093D00B6
:100CE000140000202400002010B50446FB48844274
:100CF00009D101218803FFF7ADFF00214FF48040A7
:100D0000FFF7A8FF32E0F648844209D101214804E8
:100D1000FFF7ADFF00214FF40030FFF7A8FF25E0FB
:100D2000F048844209D101218804FFF7A0FF002187
:100D30004FF48020FFF79BFF18E0EB48844209D175
:100D40000121C804FFF793FF00214FF40020FFF7B3
:100D50008EFF0BE0E548844208D101210805FFF72A
:100D600086FF00214FF48010FFF781FF10BD2DE9B1
:100D7000F04786B005460E460024A24600BFA146B5
:100D80000027B08900B100BF2F462C8A4CF6FF70B7
:100D90000440F08804432C82AC894EF6F3100440E2
:100DA000B08831890843718908430443AC81AC8A17
:100DB0004FF6FF400440B0890443AC8201A8FFF71E
:100DC000C2FEC648874202D1DDF810A001E0DDF87E
:100DD0000CA0A88900F4004040B10AEBCA0000EB67
:100DE0000A1031684900B0FBF1F807E00AEBCA00CD
:100DF00000EB0A1031688900B0FBF1F86420B8FB01
:100E0000F0F004012009642101FB1089A88900F495
:100E1000004040B1322000EBC900B0FBF1F000F01F
:100E20000700044308E0322000EB09106421B0FB06
:100E3000F1F000F00F0004432C8106B0BDE8F0870C
:100E40004FF41651016000218180C18001810C2185
:100E5000418100218181704710B502460020108A2F
:100E60004FF2FF0318400B884C8823438C882343A0
:100E7000CC8823431843108210BD0021018041809B
:100E80008180C180704721B1828942F40052828101
:100E900004E082894DF6FF731A4082817047F0B5F5
:100EA0000346002400260025002040F66A17B942B8
:100EB00000D100BF1846C1F3421401F01F060127FC
:100EC00007FA06F5012C01D10C3004E0022C01D107
:100ED000103000E014301AB107682F43076002E0B9
:100EE0000768AF430760F0BD1AB1838A0B43838262
:100EF00002E0838A8B4383827047028A4FF6F07345
:100F00001A400282028A0A430282704782894FF2A3
:100F1000FF731A40828182890A438281704721B11E
:100F2000828942F00202828104E082894FF6FD73D9
:100F30001A4082817047028A4FF6DF731A4002829C
:100F4000028A0A430282704721B1028A42F4804237
:100F5000028204E0028A4BF6FF731A400282704755
:100F6000C1F308028280704701468888C0F30800F8
:100F70007047818941F0010181817047028BD2B2B3
:100F80000283028B42EA012202837047028B02F441
:100F90007F420283028B0A430283704721B1828A17
:100FA00042F02002828204E0828A4FF6DF731A4008
:100FB0008282704721B1828A42F01002828204E06C
:100FC000828A4FF6EF731A408282704721B1828A7B
:100FD00042F00802828204E0828A4FF6F7731A40D8
:100FE0008282704721B1828942F40042828103E00B
:100FF0008289C2F30E028281704721B1828A42F453
:101000000062828204E0828A4FF2FF731A40828279
:101010007047828A4FF6FB731A408282828A0A43A3
:101020008282704721B1828A42F00202828204E009
:10103000828A4FF6FD731A40828270470246002072
:10104000B1F5007F00D100BF13880B400BB1012028
:1010500000E00020704701F40072B2F5007F00D17B
:1010600000BFCA430280704770B5024600240023C7
:101070000025002040F66A16B14200D100BFC1F33E
:10108000421501F01F03012606FA03F3012D02D1D8
:101090009689334006E0022D02D1168A334001E0E2
:1010A000968A33400C12012606FA04F4168834405E
:1010B00013B10CB1012000E0002070BD10B500227A
:1010C000002340F66A14A14200D100BF0A12012495
:1010D0009440A3B2DC43048010BD000000380140FE
:1010E0000044004000480040004C004000500040D8
:1010F00010B50446FA48844208D101214015FFF793
:10110000A9FD00216015FFF7A5FD17E0F548844211
:1011100008D101210015FFF79DFD00212015FFF7E3
:1011200099FD0BE0F048844208D10121C803FFF784
:1011300091FD00214FF40040FFF78CFD10BD30B54C
:101140000246002000235068E84C20400D790C68CE
:1011500044EA0524204350609068E54C2040D1E9E2
:1011600002542C434D7944EA450420439060D06AF0
:1011700020F470000C7C641EE4B2234340EA035068
:10118000D06230BD00210160017141718160C16098
:1011900001210174704721B1826842F0010282602E
:1011A00003E0826822F001028260704721B1826808
:1011B00042F48072826003E0826822F4807282606E
:1011C000704710B50023CBB21AB144681C43446089
:1011D00002E044689C43446010BD816841F008010E
:1011E00081607047014600208A6802F008020AB157
:1011F000012000E000207047816841F00401816017
:101200007047014600208A6802F004020AB10120FA
:1012100000E00020704721B1826842F4A0028260A1
:1012200003E0826822F4A002826070470146002039
:101230008A6802F480020AB1012000E000207047B1
:1012400010B50A4600210023416821F46041531E75
:1012500041EA4331416010BD21B1426842F400626D
:10126000426003E0426822F4006242607047F0B5D9
:1012700004460D4600200021092D11DDE068A5F18E
:101280000A0606EB4607072606FA07F18843A5F18A
:101290000A0606EB460603FA06F10843E0600CE096
:1012A000206905EB4507072606FA07F1884305EB99
:1012B000450603FA06F108432061072A0FDA606B3E
:1012C000561E06EB86071F2606FA07F18843561EB0
:1012D00006EB860605FA06F10843606322E00D2A54
:1012E0000FDA206BD61F06EB86071F2606FA07F1DA
:1012F0008843D61F06EB860605FA06F108432063ED
:1013000010E0E06AA2F10D0606EB86071F2606FA3A
:1013100007F18843A2F10D0606EB860605FA06F1F1
:101320000843E062F0BD21B1826842F4801282601D
:1013300003E0826822F48012826070470146C86C24
:1013400080B2704766484C300068704721B14268EF
:1013500042F48062426003E0426822F480624260AC
:10136000704721B1426842F48052426003E0426813
:1013700022F48052426070470A460021816821F4BD
:10138000E04111438160704721B1826842F400421C
:10139000826003E0826822F400428260704721B1DB
:1013A000826842F40212826003E0826822F4021230
:1013B00082607047014600208A6802F400120AB178
:1013C000012000E000207047F0B5044615460020DB
:1013D00000220026092911DDE068A1F10A0707EBC8
:1013E000470C072707FA0CF29043A1F10A0707EB15
:1013F000470703FA07F21043E0600CE0206901EBB5
:10140000410C072707FA0CF2904301EB410703FA5E
:1014100007F210432061A06BC0F30156EF1C06F1E8
:10142000010CA7EB0C0707EB870C1F2707FA0CF240
:101430009043EF1C06F1010CA7EB0C0707EB8707A5
:1014400001FA07F21043A063F0BD10B50A4600216F
:101450000023816B21F44011531E41EA0351816343
:1014600010BD08B5002300930090009B0B4400932F
:10147000009B1A6008BD08B502460020009000924B
:1014800001F12800009B184400900098006880B289
:1014900008BD0A4600214168164B194011434160BE
:1014A00070474162826270470A460021416821F01C
:1014B0001F0111434160704740B109490831096873
:1014C00041F40001064A0832116007E0044908317E
:1014D000096821F40001024A0832116070470000D7
:1014E0000024014000280140003C0140FFFEF0FFC5
:1014F000FDF7F1FFFFFD3FFF0246002013680B40A0
:101500000BB1012000E000207047CA430260704721
:1015100070B502460020002300240B125568CEB29D
:1015200005EA060415681D4015B10CB1012000E064
:10153000002070BD00220A12D343036070470000F0
:1015400010B50446FE48844208D10121C014FFF7BB
:1015500081FB0021E014FFF77DFBC4E0B4F1804F74
:1015600008D101210846FFF782FB00210120FFF787
:101570007EFBB8E0F348844208D101210220FFF746
:1015800076FB00210220FFF772FBACE0EE488442BC
:1015900008D101210420FFF76AFB00210420FFF796
:1015A00066FBA0E0E948844208D101210820FFF74A
:1015B0005EFB00210820FFF75AFB94E0E4488442D8
:1015C00008D101211020FFF752FB00211020FFF766
:1015D0004EFB88E0DF48844208D101212020FFF73C
:1015E00046FB00212020FFF742FB7CE0DA488442E2
:1015F00008D101214014FFF72DFB00216014FFF7F3
:1016000029FB70E0D548844209D10121C804FFF7C5
:1016100021FB00214FF40020FFF71CFB63E0D048C2
:10162000844209D101210805FFF714FB00214FF482
:101630008010FFF70FFB56E0CA48844209D1012110
:101640004805FFF707FB00214FF40010FFF702FBEE
:1016500049E0C548844208D101214020FFF707FB3B
:1016600000214020FFF703FB3DE0C048844208D141
:1016700001218020FFF7FBFA00218020FFF7F7FA15
:1016800031E0BB48844208D101218015FFF7EFFA11
:101690000021A015FFF7EBFA25E0B648844209D1F6
:1016A00001210804FFF7D6FA00214FF48030FFF73C
:1016B000D1FA18E0B048844209D101214804FFF76B
:1016C000C9FA00214FF40030FFF7C4FA0BE0AB4831
:1016D000844208D101218804FFF7BCFA00214FF4AD
:1016E0008020FFF7B7FA10BD00220288944B984281
:1016F0000ED0994B98420BD0B0F1804F08D0914B4F
:10170000984205D0904B984202D0904B984204D119
:101710004FF68F731A404B881A438D4B984207D06F
:101720008C4B984204D04FF6FF431A40CB881A43A3
:1017300002808B8883850B880385814B98420BD070
:10174000854B984208D08B4B984205D08A4B9842E3
:1017500002D08A4B984201D10B7A038601238382FF
:10176000704770B5002400220023058C4FF6FE76EA
:1017700035400584028C8388048B4FF68F752C408E
:10178000B51E2C400D882C43751E2A400D892A4316
:101790004D882A436A4DA8420BD06F4DA84208D00D
:1017A000744DA84205D0744DA84202D0734DA84292
:1017B00013D14FF6F7752A404D892A434FF6FB7532
:1017C0002A408D882A434FF6FF652B404FF6FF5580
:1017D0002B408D892B43CD892B4383800483CD8877
:1017E0008586028470BD70B5002400220023058C1C
:1017F0004FF6EF7635400584028C8388048B48F6DB
:10180000FF752C404FF6FF452C400D884FF6FF76B4
:1018100006EA05252C434FF6DF752A400D8906EAB6
:1018200005152A434D8806EA05152A43444DA8426A
:1018300002D0494DA8421DD14FF67F752A404D89EF
:101840004FF6FF7606EA05152A434FF6BF752A4084
:101850008D8806EA05152A434FF6FF352B404FF2D7
:10186000FF752B408D8906EA85052B43CD8906EA55
:1018700085052B4383800483CD880587028470BD52
:1018800070B5002400220023058C4FF6FF6635401A
:101890000584028C8388848B4FF68F752C404FF61D
:1018A000FC752C400D882C434FF6FF552A400D89BE
:1018B0004FF6FF7606EA05252A434D8806EA0525F8
:1018C0002A431F4DA84202D0234DA8421DD14FF2FA
:1018D000FF752A404D894FF6FF7606EA05252A4313
:1018E0004FF6FF352A408D8806EA05252A434EF635
:1018F000FF752B404DF6FF752B408D8906EA0515C7
:101900002B43CD8906EA05152B4383808483CD883C
:101910008587028470BD70B5002200230024058CE9
:101920004EF6FF7635400584038C8488828B48F61A
:10193000FF752A404FF6FF452A400D8820E0000041
:10194000002C01400004004000080040000C004052
:10195000001000400014004000340140004C0140E1
:10196000005001400054014000180040001C00409D
:101970000020004000400140004401400048014078
:101980004FF6FF7606EA05252A434DF6FF752B40F4
:101990000D8906EA05352B434D8806EA05352B43AC
:1019A000FA4DA84202D0FA4DA84208D14BF6FF7575
:1019B0002C408D894FF6FF7606EA85152C438480EE
:1019C0008283CD88A0F84050038470BD828B4FF293
:1019D000FF331A408283828B4FF6FF7303EA0123A1
:1019E0001A4382837047F0B50C4615460022002149
:1019F0000026078C4EF6FF7C07EA0C070784828BD3
:101A0000018C4FF6FF7707EA043640F6FF473A406D
:101A10004FF6FF7707EA05273A434FF6FF7707EAC5
:101A200003373A43D94FB8420ED0D94FB8420BD002
:101A3000B0F1804F08D0D74FB84205D0D64FB8424A
:101A400002D0D64FB84206D14DF6FF77394046F462
:101A50008057394305E047F6FF57394044F4805733
:101A6000394382830184F0BD828B4FF6F3731A40B1
:101A70008283828B0A4382837047F0B50C461546F9
:101A8000002200210026078C4FF6FF6C07EA0C07A6
:101A90000784828B018C4FF6FF7707EA04264FF606
:101AA0000C773A404FF6FF7707EA03172F433A4384
:101AB000B64FB8420ED0B64FB8420BD0B0F1804FFF
:101AC00008D0B44FB84205D0B34FB84202D0B34F9C
:101AD000B84206D14FF6FF57394046F48077394374
:101AE00005E04FF2FF57394044F480773943828351
:101AF0000184F0BD028B4FF2FF331A400283028B48
:101B00004FF6FF7303EA01231A4302837047F0B5CF
:101B10000C461546002200210026078C4FF6EF7C6C
:101B200007EA0C070784028B018C4FF6FF7707EA60
:101B3000041640F6FF473A404FF6FF7707EA0337AF
:101B40003A434FF6FF7707EA05273A438F4FB842EB
:101B50000ED08F4FB8420BD0B0F1804F08D08D4FD0
:101B6000B84205D08C4FB84202D08C4FB84206D153
:101B70004FF6DF77394046F01007394305E04FF65E
:101B80005F77394044F01007394302830184F0BD88
:101B9000028B4FF6F3731A400283028B0A430283CF
:101BA0007047F0B50C46154600220021068C4FF612
:101BB000FE773E400684028B018C4FF60C76324055
:101BC0007E1C06EA03162E433243704EB0420ED0FE
:101BD0006F4EB0420BD0B0F1804F08D06D4EB04286
:101BE00005D06D4EB04202D06C4EB04206D14FF6D9
:101BF000FD76314044F00106314305E04FF6F576BD
:101C0000314044F00106314302830184F0BD70B5D8
:101C100005460C465D4885420ED05D4885420BD096
:101C2000B5F1804F08D05B48854205D05A488542BF
:101C300002D05A48854200D100E000BF208850B948
:101C40002389A28861882846FFF7ABFFE1882846F0
:101C5000FFF79EFF25E0208804280AD12389A28867
:101C600061882846FFF753FFE1882846FFF742FFC7
:101C700017E0208808280AD12389A288618828468D
:101C8000FFF7FBFEE1882846FFF7EEFE09E0238917
:101C9000A28861882846FFF7A6FEE1882846FFF75C
:101CA00095FE70BD2DE9F04105460C460026012742
:101CB000608808B9022600E00026A088012801D12A
:101CC000022700E001272088A0B92389A288618823
:101CD0002846FFF766FFE1882846FFF759FF23896A
:101CE0003A4631462846FFF712FFE1882846FFF7BB
:101CF00001FF13E02389A28861882846FFF707FFC8
:101D0000E1882846FFF7F6FE23893A463146284601
:101D1000FFF747FFE1882846FFF73AFFBDE8F0816B
:101D20000A884B881A438B881A43CB881A430B893D
:101D30001A434B891A438B891A43A0F844207047F1
:101D40004FF6FF71818000210180C18041800172C6
:101D500070470021018041808180C18001814181E3
:101D60008181C181704700210180418001218180F2
:101D70000021C18001817047002101804180818064
:101D8000C18001814181818170470000002C0140A8
:101D9000003401400004004000080040000C0040F6
:101DA00021B1028842F00102028004E002884FF66D
:101DB000FE731A400280704731B1B0F8442042F4FB
:101DC0000042A0F8442005E0B0F84420C2F30E021F
:101DD000A0F8442070471AB183890B43838102E045
:101DE00083898B43838170478182704741EA020374
:101DF000A0F8483070471AB183890B43838102E011
:101E000083898B438381704701894FF6F8721140B3
:101E1000018170470A46002101894FF68F731940EE
:101E200011430181704730B504460D4629462046CE
:101E3000FFF7F0FF208940F00700208130BD2DE939
:101E4000F04104460D4616461F46602D06D13B461E
:101E5000012231462046FFF75AFE05E03B460122AB
:101E600031462046FFF79DFE29462046FFF7D2FF68
:101E7000208940F007002081BDE8F08130B50C4694
:101E800000210189C9B24FF6FF7505EA0325154304
:101E900025432943018130BD2DE9F04105460E4619
:101EA00017469846002443463A4631462846FFF7EF
:101EB000E5FF2C894FF6F870044044F007044FF614
:101EC0008F70044044F070042C81BDE8F081F0B5BF
:101ED00004460D4616461F463B46324629462046D6
:101EE000FFF7CCFF208940F480402081F0BD0185C0
:101EF000828270470A46002101884FF68F7319408D
:101F0000114301807047F0B50C4615461E4600216E
:101F1000002200230189028B038C4FF6F8773940A9
:101F200021434FF6FC473A4040F201173A434FF63F
:101F3000DD773B404FF6FF7707EA06172F433B4319
:101F4000018102830384F0BD0A460021018B4FF614
:101F50008F7319401143018370470A460021018B9A
:101F600048F6FF7319404FF6FF7303EA0223194343
:101F7000018370470A460021818B4FF68F73194009
:101F80001143818370470A460021818B48F6FF7315
:101F900019404FF6FF7303EA022319438183704708
:101FA00021B1028842F08002028004E002884FF6EC
:101FB0007F731A400280704721B1828842F0040288
:101FC000828004E082884FF6FB731A40828070475B
:101FD00021B1828842F00802828004E082884FF6B4
:101FE000F7731A408280704721B1828842F0010263
:101FF000828004E082884FF6FE731A408280704728
:102000000A460021018B4FF6F773194011430183F3
:1020100070470A460021018B4FF2FF7319404FF6BB
:10202000FF7303EA02231943018370470A46002124
:10203000818B4FF6F77319401143818370470A462D
:102040000021818B4FF2FF7319404FF6FF7303EAB3
:1020500002231943818370470A460021018B4FF602
:10206000FB7319401143018370470A460021018B1D
:102070004FF6FF3319404FF6FF7303EA022319436B
:10208000018370470A460021818B4FF6FB7319408C
:102090001143818370470A460021818B4FF6FF333D
:1020A00019404FF6FF7303EA0223194381837047F7
:1020B0000A460021018B4FF67F73194011430183BB
:1020C00070470A460021018BC1F30E014FF6FF73E2
:1020D00003EA02231943018370470A460021818BDA
:1020E0004FF67F7319401143818370470A460021E0
:1020F000818BC1F30E014FF6FF7303EA02231943EC
:10210000818370470A460021018C4FF6FD73194008
:102110001143018470470A460021018C4FF6F77382
:1021200019401143018470470A460021018C4FF683
:10213000DF7319404FF6FF7303EA0213194301845A
:1021400070470A460021018C4FF67F7319404FF605
:10215000FF7303EA02131943018470470A46002102
:10216000018C4FF6FF5319404FF6FF7303EA022329
:102170001943018470470A460021018C4FF2FF7316
:1021800019404FF6FF7303EA022319430184704795
:102190000A460021018C4DF6FF7319404FF6FF737C
:1021A00003EA023319430184704730B50023012448
:1021B0008C40A3B2048C9C430484048C02FA01F585
:1021C000ADB22C43048430BD30B5002304248C40D0
:1021D000A3B2048C9C430484048C02FA01F5ADB2D2
:1021E0002C43048430BD70B50346002000241846FB
:1021F000183001258D40ACB21D8CA5431D8409B15A
:10220000082909D100EB6100056825F0700505601B
:102210000568154305600EE00D1FC5F34E05284403
:10222000056825F4E045056005684FF6FF7606EA87
:1022300002263543056070BD21B1028842F00202DA
:10224000028004E002884FF6FD731A400280704756
:1022500021B1028842F00402028004E002884FF6B5
:10226000FB731A400280704721B1828842F08002DD
:10227000828004E082884FF67F731A408280704724
:1022800002884FF6F7731A40028002880A430280E0
:10229000704782884FF68F731A40828082880A4383
:1022A0008280704702894FF6F8731A4002810289D2
:1022B0000A430281704702894FF67F731A400281F8
:1022C00002890A4302817047818470478185704783
:1022D000818670470187704781877047A0F840105A
:1022E000704702884FF6FF431A40028002880A4373
:1022F000028070470146888E70470146088F7047FC
:102300000146888F70470146B1F84000704701468A
:10231000888C70470146088D704702460020138A5A
:102320000B400BB1012000E000207047CA4302823D
:10233000704730B50246002000230024158A05EAC4
:102340000103958905EA010413B10CB1012000E0F5
:10235000002030BDCA4302827047000001460020C1
:10236000FE4A106800F03800084310607047FB49CF
:10237000096821F00801F94A116011460968014312
:1023800011607047F549096821F01001F34A1160A6
:1023900011460968014311607047F148EF494860F0
:1023A000F04848607047EE48EC494860ED484860A6
:1023B0007047EA48006940F08000E84908617047CA
:1023C000E648006940F08000E44908617047042055
:1023D000E249C96801F0010109B101200EE0DF49BD
:1023E000C96801F0040109B1022007E0DB49C968AE
:1023F00001F0100109B1032000E00420704700B58E
:1024000002460423FFF7E3FF034603E0FFF7DFFF85
:102410000346521E012B01D1002AF7D102B9052330
:10242000184600BD30B5044604254FF43020FFF7B0
:10243000E6FF0546042D17D1C848006940F00200A8
:10244000C649086108464461006940F040000861DF
:102450004FF43020FFF7D3FF0546C048006941F62E
:10246000FD710840BD490861284630BD10B50424FF
:102470004FF43020FFF7C3FF0446042C16D1B748B1
:10248000006940F00400B54908610846006940F061
:10249000400008614FF43020FFF7B1FF0446AF4819
:1024A000006941F6FB710840AC490861204610BD47
:1024B00000B502460423FFF78AFF034603E0FFF757
:1024C00086FF0346521E012B01D1002AF7D102B923
:1024D0000523184600BD10B504244FF43020FFF743
:1024E000E7FF0446042C16D19C48006940F0040024
:1024F0009A4908610846006940F0400008614FF4BD
:102500003020FFF7D5FF04469448006941F6FB717F
:10251000084092490861204610BD00208F49C969D2
:1025200001F0020109B1012000E00020704730B540
:10253000A5250424FFF7F1FF00B100254FF430205A
:10254000FFF75DFF0446042C3AD185488349886033
:10255000844888600846006940F020000861084609
:10256000006940F0400008614FF43020FFF747FF5A
:102570000446042C1BD17948006941F6DF710840FC
:10258000764908610846006940F010000861764805
:102590000580E002FFF733FF0446052C10D06F489A
:1025A000006941F6EF7108406C49086108E0052CAC
:1025B00006D06A48006941F6EF7108406749086132
:1025C000204630BD78B506460C4604250020009014
:1025D000E802FFF714FF0546042D24D15F48006987
:1025E00040F001005D4908613480E802FFF707FF11
:1025F0000546042D10D1B01C0090200C00990880D5
:10260000E802FFF7FCFE05465448006941F6FE71FA
:1026100008405249086106E05048006941F6FE71E1
:1026200008404E490861284678BD70B504460D46FD
:102630000426F002FFF7E3FE0646042E11D14748B8
:10264000006940F00100454908612580F002FFF76C
:10265000D6FE06464148006941F6FE7108403F49F2
:102660000861304670BD70B505460E460424E00290
:10267000FFF7C5FE0446042C17D139483749886056
:10268000384888600846006940F0100008612E80D4
:10269000E002FFF7B4FE0446052C06D02F4800697F
:1026A00041F6EF7108402D490861204670BD2DE9C3
:1026B000F04304464FF6FF763746B046B146042550
:1026C000E443E6B2C4F30727C4F307484FEA1469AA
:1026D000E802FFF794FE0546042D49D120481F4922
:1026E0008860204888600846006940F01000086152
:1026F000FF2E06D01C4808300680E802FFF77FFE58
:102700000546042D08D1FF2F06D017480A30078050
:10271000E802FFF774FE0546042D0AD1B8F1FF0F59
:1027200007D011480C30A0F80080E802FFF767FEE0
:102730000546042D0AD1B9F1FF0F07D00A480E3023
:10274000A0F80090E802FFF75AFE0546052D0FD0CD
:102750000248006941F6EF71084007E0002002409E
:1027600023016745AB89EFCD00F8FF1F664908617B
:102770002846BDE8F08330B5054604244FF43020E8
:10278000FFF73DFE0446042C41D160485E49886055
:102790005F4888600846006940F0200008610846EC
:1027A000006940F0400008614FF43020FFF727FE39
:1027B0000446042C22D15448006941F6DF710840D8
:1027C000514908610846006940F0100008611DB1D8
:1027D00000205049088002E0A5204E4908804FF4AF
:1027E0003020FFF70CFE0446052C10D04648006947
:1027F00041F6EF7108404449086108E0052C06D015
:102800004148006941F6DF7108403F4908612046B0
:1028100030BDF0B505460E46174604243B483A49FC
:1028200088603B488860E002FFF7E9FD0446042C1D
:1028300019D13548006940F010003349086147F06C
:10284000F800304328433349891C0880E002FFF731
:10285000D6FD0446052C06D02B48006941F6EF71E1
:102860000840294908612046F0BD2748C069800812
:1028700070472548006A704700202349096801F025
:10288000200109B1012000E00020704729B11E4A53
:10289000126902431C4B1A6104E01B4A126982430D
:1028A000194B1A61704701460020012908D1164AC8
:1028B000D26902F001020AB1012008E0002006E01E
:1028C000114AD2680A400AB1012000E00020704796
:1028D0000D49C860704704200B49C96801F0010127
:1028E00009B101200EE00849C96801F0040109B1ED
:1028F000022007E00449C96801F0100109B1032072
:1029000000E00420704700000020024023016745DA
:10291000AB89EFCD00F8FF1F0E49086070470D49E5
:10292000486070470B49886070474AF6AA200949F9
:10293000086070474CF6CC40064908607047014675
:102940000020044AD2680A400AB1012000E00020B9
:10295000704700000030004001684FF6FE721140E1
:1029600001600021016041608160C1608D49884241
:1029700008D18C490839496841F00F01894A083A61
:1029800051608AE087491431884208D18549083965
:10299000496841F0F001834A083A51607DE081497D
:1029A0002831884208D17F490839496841F470616B
:1029B0007C4A083A516070E07A493C31884208D13B
:1029C00078490839496841F47041764A083A5160BB
:1029D00063E074495031884208D172490839496826
:1029E00041F470216F4A083A516056E06D496431F4
:1029F000884208D16B490839496841F47001694A35
:102A0000083A516049E067497831884208D1654900
:102A10000839496841F07061624A083A51603CE007
:102A20006149884206D1011F096841F00F01021F68
:102A3000116032E05C491431884208D15A49091FBB
:102A4000096841F0F001584A121F116025E056490B
:102A50002831884208D15449091F096841F470613E
:102A6000514A121F116018E04F493C31884208D189
:102A70004D49091F096841F470414B4A121F11600A
:102A80000BE049495031884207D14749091F09687D
:102A900041F47021444A121F1160704710B50022A2
:102AA000026847F6F0739A430C6A8B6823430C69FB
:102AB00023434C6923438C692343CC6923434C6AE9
:102AC00023438C6A23431A430260CB6843600B683C
:102AD00083604B68C36010BD00210160416081606C
:102AE000C160016141618161C161016241628162D4
:102AF000704721B1026842F00102026004E00268FE
:102B00004FF6FE731A40026070471AB103680B4318
:102B1000036002E003688B430360704741607047C5
:102B20000146486880B2704701460020002201F04B
:102B300080531BB11C4B083B1A6802E0194B083B41
:102B40001A6802EA01030BB1012000E0002070477F
:102B500000F0805119B11449091F086002E01149C1
:102B600008394860704701460020002201F0805378
:102B70001BB10D4B083B1A6802E00A4B083B1A6870
:102B800002EA01030BB1012000E00020704700F0D1
:102B9000805119B10449091F086002E00149083950
:102BA00048607047080002400804024010B502F077
:102BB0005AFF10BD10B502F09BFF10BD10B50446C2
:102BC000204604F0DFFC10BD10B53E480078012817
:102BD00005D102F0F5FE03F036F802F00CFF10BD4F
:102BE00010B56FF00400FDF7E0FC37480068374986
:102BF000B0FBF1F036490870334800683349B0FB48
:102C0000F1F441F2883044430520324908804FF006
:102C1000E020006940F002004FF0E0210861084622
:102C20004461006940F00100086110BD2DE9F047E2
:102C3000074600264FF0E020D0F814902448007892
:102C400007FB00F800BFFFF7B1FF4FF0E0208569F8
:102C500011E04FF0E0208469AC420CD0AC4202D2CB
:102C6000281B064403E0A9EB04002844064425463B
:102C7000464500D300E0ECE700BFFFF79BFFBDE84F
:102C8000F08770B504460F480078A0B1124800786C
:102C900088B910480088844206DB0E48008894FBFF
:102CA000F0F52846FFF78AFF0A48008894FBF0F108
:102CB00000FB114084B24FF47A7104FB01F0FFF77E
:102CC000B5FF70BD590000200000002000127A00FE
:102CD000280000202A0000205100002008B5012112
:102CE0001020FDF79DFF4FF40050ADF800001020BC
:102CF0008DF8030003208DF8020069460448FDF7B3
:102D0000D3FC4FF400510248FDF77BFD08BD0000E5
:102D10000010014010B586B00446012144F20400C1
:102D2000FDF77EFF4FF40070ADF8140003208DF81E
:102D3000160018208DF8170005A9FE48FDF7B4FC11
:102D40004FF48060ADF8140004208DF8170005A939
:102D5000F848FDF7A9FC25208DF8000003208DF828
:102D600001008DF8020001208DF803006846FDF790
:102D7000D2FB01940020ADF80800ADF80A00ADF8D0
:102D80000C00ADF810000C20ADF80E0001A9EA48C7
:102D9000FDF7EDFF012240F22551E748FEF77FF8ED
:102DA0000121E548FEF76FF806B010BD10B50446E6
:102DB0002146E148FEF7D4F800BF4021DE48FEF787
:102DC0003DF90028F9D010BD2DE9F04106460F4627
:102DD0009046002442463046394600F079FB0546CD
:102DE00000BF04E0285DFFF7E1FF601CC4B2285D6E
:102DF0000028F7D1BDE8F08170B5064600243046C2
:102E000000F03CFB054600BF04E0285DFFF7CEFF65
:102E1000601CC4B2285D0028F7D170BD70B50446AF
:102E2000002500BF04E0605DFFF7C0FF681CC5B26D
:102E3000605D0028F7D170BD70B502460B460025D5
:102E4000002100244FF6FF7000BF12E0555C68407F
:102E500000240AE000F0010626B140104AF2010603
:102E6000704000E04010661CB4B2082CF2DB4E1C2F
:102E7000B1B29942EADB70BD30B585B000240025BF
:102E800055208DF80000AA208DF8010011208DF842
:102E90000200AA48008800128DF80300A7480078B5
:102EA0008DF80400A548408800128DF80500A3485D
:102EB00080788DF80600A148808900128DF80700FF
:102EC0009E48007B8DF808009C48C08900128DF850
:102ED00009009A48807B8DF80A009848008A001201
:102EE0008DF80B009548007C8DF80C009348808A83
:102EF00000128DF80D009148007D8DF80E008F486E
:102F0000C08A00128DF80F008C48807D8DF810006B
:102F100011216846FFF790FF054628128DF8110031
:102F2000E8B28DF8120000BF05E01DF80400FFF7BD
:102F30003DFF601CC4B2802CF7DB05B030BD2DE92D
:102F4000F041002700240026A046002540F225512C
:102F50007948FEF789F800287ED07748FEF704F814
:102F6000C1B2774802780078401C754B18707548DC
:102F700081541846007880286EDB002019460870BE
:102F800000BF0DE06F48005D552807D16D49601CFA
:102F9000085CAA2802D1A01C0D5C03E0601CC4B22E
:102FA000802CEFDB00BF6019802855DA65490819CD
:102FB0002946FFF741FF8046601962490E5C4FF6D3
:102FC000FF7000EA06266019401C085C0643B04505
:102FD00042D101205C490870E01CC4B22046611C4B
:102FE000CCB25849085C5949087008460078002856
:102FF00046D02046611CCCB25249085C5449087046
:103000002046611CCCB24F49085C514948702046AB
:10301000611CCCB24B49085C4D4988702046611C4C
:10302000CCB24849085C4A49C8702046611CCCB201
:103030004449085C464908712046611CCCB24149AC
:10304000085C434948712046611CCCB23D49085C8C
:103050003F498871274608E0A6E13A48015DE21B36
:103060003B48C01D8154601CC4B23648005D002836
:10307000F3D10022E01B801E3549C91D0A5493E19B
:103080002046611CCCB22F49085C324908702046AA
:10309000611CCCB22B49085C2E4948800846408808
:1030A0004FF6FF7101EA00202A494880084640880F
:1030B0002146621CD4B2234A515C0843254948800A
:1030C0002046611CCCB21146085C22498880084623
:1030D00080884FF6FF7101EA00201E49888008466B
:1030E00080882146621CD4B2164A515C08431949B3
:1030F00088802046611CCCB21146085C1549C88006
:103100000846C0884FF6FF7101EA00201149C880C7
:103110000846C0882146621CD4B20A4A515C084362
:103120000C49C8802046611CCCB21146085C094994
:10313000088111E00008014000380140B001002082
:103140002D0000207C0000202C00002030000020FA
:10315000C8010020E40100202046611CCCB21146C9
:10316000085C924988722046611CCCB21146085C0A
:103170008E49C8722046611CCCB21146085C8B494E
:103180008881084680894FF6FF7101EA002087494F
:103190008881084680892146621CD4B2844A515CE9
:1031A0000843824988812046611CCCB21146085CE4
:1031B0007E49C8810846C0894FF6FF7101EA0020A8
:1031C0007A49C8810846C0892146621CD4B2784A2F
:1031D000515C08437549C8812046611CCCB2114638
:1031E000085C724908820846008A4FF6FF7101EABE
:1031F00000206E4908820846008A2146621CD4B22B
:103200006B4A515C0843694908822046611CCCB274
:103210001146085C654948820846408A4FF6FF71AE
:1032200001EA0020614948820846408A2146621C22
:10323000D4B25F4A515C08435C4948822046611C15
:10324000CCB21146085C594988820846808A4FF6FC
:10325000FF7101EA0020554988820846808A21468C
:10326000621CD4B2524A515C0843504988822046BD
:10327000611CCCB21146085C4C49C8820846C08A21
:103280004FF6FF7101EA00204849C8820846C08A0B
:103290002146621CD4B2464A515C08434349C88265
:1032A0002046611CCCB21146085C404908830846A0
:1032B000008B4FF6FF7101EA00203C490883084665
:1032C000008B2146621CD4B2394A515C084337490D
:1032D00008832046611CCCB21146085C3349488300
:1032E0000846408B4FF6FF7101EA00202F494883C2
:1032F0000846408B2146621CD4B22D4A515C0843DB
:103300002A4948832046611CCCB21146085C2749F3
:1033100088830846808B4FF6FF7101EA002023491D
:1033200088830846808B2146621CD4B2204A515CB7
:1033300008431E4988832046611CCCB21146085CB4
:103340001A49C8830846C08B4FF6FF7101EA002076
:103350001649C8830846C08B2146621CD4B2144A61
:10336000515C08431149C8832046611CCCB2114608
:10337000085C0E4981F820002046611CCCB2114641
:10338000085C0A4981F821002046611CCCB2114634
:10339000085C064981F822002046611CCCB2114627
:1033A000085C024981F82300BDE8F081E4010020B7
:1033B0007C00002010B50A46002100BF01E04B1C34
:1033C000D9B2435C002BFAD1425400244B1CC454A4
:1033D00010BD002100BF01E04A1CD1B2425C002AAE
:1033E000FAD100234A1E83547047002100BF03E036
:1033F000002242544A1CD1B2425C002AF8D17047E4
:103400000146002000BF01E0421CD0B20A5C002A45
:10341000FAD1704770B504460D4600232046FFF7E9
:10342000EFFF0646002304E0E85CF1186054581CE6
:10343000C3B2E85C0028F7D1F118605470BD70B5D4
:1034400005460C46002300262846FFF7D9FF034611
:103450002046FFF7D5FF06469E4201D0002070BDF2
:1034600005E0E85CE15C884201D00020F7E7181E27
:10347000A3F10101CBB2F4D10120F0E770B503460E
:10348000002100240122002B05DA5B422D20BE4DD5
:103490006854481CC1B21C4600BF02EB82004200C7
:1034A000A242FADD00BF0A2092FBF0F294FBF2F098
:1034B0000A2590FBF5F605FB16003030B24D685436
:1034C000481CC1B2012AEEDC00206854284670BDB9
:1034D0002DE9F04F85B005460E4692460024A346DE
:1034E0004FF001090120049000BF00221346284636
:1034F000314604F0CDFC06D286F000462D20A349CB
:103500000855601CC4B22846314604F067FC834667
:10351000584604F092FC2A463346CDE9020104F0F5
:10352000F1FD0746884600BF09EB89004FEA4009D4
:10353000D945F9DD00BF0A2099FBF0F99BFBF9F0B2
:103540000A2190FBF1F201FB120030308F4908553F
:10355000601CC4B2B9F1010FEDDCBAF1000F2CDD33
:103560002E20085500BF601CC4B2AAF1010000F073
:10357000FF0A049800EB800040000490049804F0D7
:103580005CFC3A464346CDE9000104F0BDFCCDE9C0
:10359000020104F023FC0A2190FBF1F201FB12006E
:1035A00030307A490855BAF1000FDCD10021601C97
:1035B000C0B20446754A115402E000207349085510
:1035C000724805B0BDE8F08F10B501460022012316
:1035D0000024087808B9002010BD08782D2808D0EC
:1035E0000878302802DB0878392802DD4FF0AA304D
:1035F000F2E708782D2801D1012000E000200246E2
:1036000004E003EB83004300501CC2B2885C002836
:10361000F7D108782D2801D1012000E000200246D2
:1036200008E00A2093FBF0F3885C303800FB034489
:10363000501CC2B2885C0028F3D108782D2801D133
:10364000604200E0204604462046C5E72DE9FF5FC2
:10365000044600274FF00108B946DFF834A10020E6
:10366000054606468346207820B90020014604B06E
:10367000BDE8F09F20782D2808D02078302802DB84
:103680002078392802DD00200146F0E7012718E004
:10369000E05D302802DBE05D392810DDE05D2E289A
:1036A00004D10BF1010000F0FF0B02E00020014605
:1036B000DDE7BBF1010F02DD00200146D7E7781CF2
:1036C000C7B2E05D0028E3D120782D2801D1012088
:1036D00000E00020074605E008EB88004FEA4008BC
:1036E000781CC7B2E05D2E28F6D120782D2801D1B4
:1036F000012000E00020074612E00A2098FBF0F8C5
:10370000E15D303901FB08F004F097FB2A463346AF
:10371000CDE9020104F056F905460E46781CC7B201
:10372000E05D2E28E9D1781CC7B21CE00022194BBD
:103730004846514604F0FAF981468A46E15DA1F116
:10374000300004F07AFB4A465346CDE9000104F00C
:10375000DBFB2A463346CDE9020104F033F9054686
:103760000E46781CC7B2E05D0028DFD120782D28F6
:1037700003D1284686F0004101E02846314605463F
:103780000E462846314672E7FC000020100100205A
:103790000000F03F0000244010B501210420FDF797
:1037A0003FFA10BD08B54FF48070ADF8000010204E
:1037B0008DF8030003208DF8020069467B48FCF772
:1037C00073FF4FF480717948FDF71BF808BD08B509
:1037D0004FF48070ADF8000004208DF803006946B6
:1037E0007248FCF761FF08BD10B50024FFF7DAFF4F
:1037F0004FF480716D48FDF706F81420FFF741FA89
:103800004FF480716948FCF7FCFFFFF7E0FF0124EB
:1038100000BF6748006820B1201E04F101018CB28E
:10382000F7D1012400BF6248006820B9201E04F1CE
:1038300001018CB2F7D1012400BF5D48006820B1BE
:10384000201E04F101018CB2F7D110BD70B5002625
:103850000025002400BF1FE0012600BF5448006877
:1038600020B9301E06F101018EB2F7D11E20FFF7FC
:10387000DDF96006040E4E48006808B144F001040A
:10388000012600BF4A48006820B1301E06F1010140
:103890008EB2F7D1681CC5B2082DDDDB204670BDA5
:1038A0002DE9F04F89B005460E460024A1460020C0
:1038B000079008900690FFF797FF72B6002405E086
:1038C000FFF7C4FF07A90855601CC4B2052CF7DB3D
:1038D000FFF768FF4FF480713448FCF792FF002433
:1038E00006E007A8005D484400F0FF09601CC4B270
:1038F000042CF6DB9DF82000484503D031462846CD
:10390000FFF7CEFF62B69DF81D0004F0ADFA074642
:103910000022284B04F0F8FA0022274BCDE90001E1
:1039200004F004F9CDE904019DF81C0004F09CFAB0
:10393000CDE90201DDE9042304F044F8824604F0F5
:103940000FF806901D49069804F042FE074604F061
:10395000F3FD30809DF81F0004F086FA0022154B1D
:10396000CDE9000104F0D0FA82460022124B04F0A7
:10397000DDF8074688469DF81E0004F075FA3A46C1
:103980004346CDE9020104F01DF8CDE9040103F03E
:10399000E7FF06900949069804F01AFE074604F06E
:1039A000CBFD288009B0BDE8F08F00000008014081
:1039B000200121420000F03F00002440000020418F
:1039C00030B589B005460C4601210220FDF735F9D6
:1039D00001210520FDF724F90320ADF8200018206F
:1039E0008DF8230003208DF8220008A91748FCF762
:1039F0005BFEADF81850ADF814400020ADF81A0089
:103A0000ADF8160005A91248FDF76EFE6020ADF86E
:103A100004000120ADF806000020ADF80C0001A95B
:103A20000B48FDF72DFF01A90948FDF774FF082198
:103A30000748FEF7FBFA08210548FEF700FB0121C5
:103A40000348FEF7ADF909B030BD0000000C01409D
:103A50000004004008B501210820FDF7E1F8C0206E
:103A6000ADF8000010208DF8030003208DF802004F
:103A70006946FD48FCF718FE0120FC490860FC4936
:103A8000C1F89C0108BD08B58020ADF800001020E9
:103A90008DF8030003208DF802006946F248FCF718
:103AA00003FE08BD08B58020ADF8000001208DF8A8
:103AB000020004208DF803006946EB48FCF7F4FD92
:103AC00008BD10B5FFF7DFFF0120E849091D0860B8
:103AD000E749C1F898010020E449091D0860E4495C
:103AE000C1F8980110BD10B5FFF7CDFF0020DF49E8
:103AF0000860DF49C1F89C010120DC490860DC490D
:103B0000C1F89C0110BD10B50024FFF7CBFF0120C8
:103B1000D649091D0860D649C1F8980107E0601C24
:103B2000C4B2FA2C03DDFFF7DEFF012010BDCF4841
:103B30007C3800680028F2D1CC49086000BFF5E766
:103B400010B50020C9490860FFF79DFF0020C84953
:103B5000C1F89C010120C54908600020C449C1F892
:103B6000980110BD10B50020C0490860FFF78BFF19
:103B70000120BF49C1F89C01BC4908600020BC4934
:103B8000C1F8980110BD70B50446FFF77CFF002016
:103B9000B649086000250EE0E009B449091D086037
:103BA0006006040E0120B249C1F898010020AF4917
:103BB0000860681CC5B2082DEEDB70BD70B5054607
:103BC0000024FFF76FFF002610E00020A7490860DF
:103BD0000120A749C1F898016006040EA3487C386B
:103BE000006808B1601CC4B2701CC6B2082EECDBC1
:103BF00015B9FFF7B7FF01E0FFF7A2FF204670BD40
:103C000070B505460C4672B6FFF75BFF7820FFF7EC
:103C1000BAFFFFF778FF2846FFF7B5FFFFF773FFFE
:103C20002046FFF7B0FFFFF76EFFFFF75CFF62B6BD
:103C300070BD10B5044621460020FFF7E1FF10BD1E
:103C400010B5044621464020FFF7DAFF10BD10B53D
:103C5000FFF700FF6420FFF714F8AE20FFF7E9FF3D
:103C60002020FFF7E6FF1020FFF7E3FFB020FFF76B
:103C7000E0FFC820FFF7DDFF0020FFF7DAFF10208C
:103C8000FFF7D7FF4020FFF7D4FF8120FFF7D1FFD8
:103C9000FF20FFF7CEFFA120FFF7CBFFA620FFF705
:103CA000C8FFA820FFF7C5FF3F20FFF7C2FFA420F1
:103CB000FFF7BFFFD320FFF7BCFF0020FFF7B9FFDE
:103CC000D520FFF7B6FFF020FFF7B3FFD920FFF7AD
:103CD000B0FF2220FFF7ADFFDA20FFF7AAFF122086
:103CE000FFF7A7FFDB20FFF7A4FF2020FFF7A1FFCE
:103CF0008D20FFF79EFF1420FFF79BFFAF20FFF7FB
:103D000098FF10BD70B504460D4605F1B001C8B26C
:103D1000FFF78FFF102141EA1410FFF78AFF04F02C
:103D20000F0141F00100FFF784FF70BD70B506463A
:103D3000002415E004F1B001C8B2FFF77AFF0020BB
:103D4000FFF777FF1020FFF774FF002504E03046EF
:103D5000FFF776FF681CC5B2802DF8DB601CC4B28B
:103D6000082CE7DB70BD70B50646022415E004F1AF
:103D7000B001C8B2FFF75DFF0020FFF75AFF102027
:103D8000FFF757FF002504E03046FFF759FF681C96
:103D9000C5B2802DF8DB601CC4B2082CE7DB70BD17
:103DA00070B5044604F1B001C8B2FFF742FF00202D
:103DB000FFF73FFF1020FFF73CFF002504E0FF2046
:103DC000FFF73EFF681CC5B2802DF8DB70BD10B553
:103DD0008D20FFF72EFF1420FFF72BFFAF20FFF7FA
:103DE00028FF10BD10B58D20FFF723FF1020FFF72F
:103DF00020FFAE20FFF71DFF10BD2DE9F04706465E
:103E0000894617469A464FF0000800240025BAF16B
:103E1000010F03D0BAF1020F66D12DE020E0785DEA
:103E2000203800F0FF087E2E04DD002609F1010095
:103E300000F0FF0949463046FFF764FF002409E01F
:103E400008EB48010B4A02EB4101085DFFF7F8FE61
:103E5000601CC4B2062CF3DBB01DC6B2681CC5B230
:103E6000785D0028DBD13FE0000C014098812142C1
:103E700000802142F288000832E0785D203800F0AE
:103E8000FF08782E04DD002609F1010000F0FF098B
:103E900049463046FFF736FF002407E004EB0811DF
:103EA000FA4A505CFFF7CCFE601CC4B2082CF5DB6C
:103EB00009F10100C1B23046FFF724FF002408E0F9
:103EC00004EB08110831F14A505CFFF7B9FE601CA1
:103ED000C4B2082CF4DB06F10800C6B2681CC5B2F7
:103EE000785D0028C9D100BF00BFBDE8F0872DE98B
:103EF000F04180460E46174600247D01314640467B
:103F0000FFF700FF00BF08E0E149495DC943C8B2BF
:103F1000FFF796FE6D1C601CC4B2102CF4DB701C05
:103F2000C1B24046FFF7EEFE002408E0D849495DE3
:103F3000C943C8B2FFF784FE6D1C601CC4B2102CCC
:103F4000F4DBBDE8F0812DE9F05F06460F469046B0
:103F50001C46DDF828A04FF0000BE11704EB51716F
:103F6000C910A4EBC10131B92046E11704EB51712E
:103F7000C1F3C70506E02046E11704EB5171C910F3
:103F8000491CCDB23D4614E029463046FFF7BAFE43
:103F9000B1460AE059460BF1010B1AF80100FFF790
:103FA0004FFE09F1010000F0FF09C145F2DB681C7A
:103FB000C5B2A542E8DBBDE8F09F2DE9F047064613
:103FC0008846174699460025002400BF2BE006EBE3
:103FD0000411C8B24146FFF795FE002509E02021F3
:103FE00001FB0451795CC943C8B2FFF729FE681C84
:103FF000C5B2102DF3DB08F10102D1B206EB0412B9
:10400000D0B2FFF77FFE102509E0202101FB04510B
:10401000795CC943C8B2FFF713FE681CC5B2202DF6
:10402000F3DB601CC4B24C45D1DBBDE8F0873EB584
:1040300000200090019002906846FFF7D6F995A104
:104040006846FFF7E7F99449C88AFFF717FA04466C
:1040500021466846FFF7DEF990A16846FFF7DAF9D6
:1040600001236A4600215A20FFF7C7FE3EBD2DE915
:10407000F04186B0142101A803F00DFC002000904F
:1040800087480078002868D1012085490870002001
:10409000FFF74CFEFFF7CBFF01A8FFF7A6F981A1C0
:1040A00001A8FFF7B7F97C49088803F0DDFE074651
:1040B00000227D4B03F03AFD05460122FFF708FA86
:1040C0000446214601A8FFF7A5F978A101A8FFF74A
:1040D000A1F9022301AA01210F20FFF78EFE01A8FA
:1040E000FFF783F972A101A8FFF794F96A4948889C
:1040F00003F0BAFE074600226B4B03F017FD05469E
:104100000122FFF7E5F90446214601A8FFF782F9ED
:1041100062A101A8FFF77EF9022301AA03210F2063
:10412000FFF76BFE01A8FFF760F962A101A8FFF796
:1041300071F959498889FFF7A1F90446214601A878
:10414000FFF768F95CA101A8FFF764F9022301AA4F
:1041500005210F20FFF751FEB9E1514800780128F1
:1041600034D102204E4908700020FFF7DFFDFFF731
:104170005EFF01A8FFF739F950A101A8FFF74AF93E
:104180004549C889FFF77AF90446214601A8FFF797
:1041900041F9022301AA19460320FFF72EFE01A8C8
:1041A000FFF723F948A101A8FFF734F93A49088A33
:1041B000FFF764F90446214601A8FFF72BF9022313
:1041C00001AA04210320FFF718FE80E1344800789B
:1041D000022859D10320324908703E488078009067
:1041E000BDF800004FF6FF7101EA00200090BDF815
:1041F00000003849C97808430090012269463648D2
:1042000001F059F80020FFF791FDFFF710FF01A81A
:10421000FFF7EBF831A101A8FFF7FCF82D498878EA
:10422000FFF72CF90446214601A8FFF7F3F8022313
:1042300001AA01211920FFF7E0FD01A8FFF7D5F839
:1042400028A101A8FFF7E6F82249C878FFF716F978
:104250000446214601A8FFF7DDF8022301AA032145
:104260001920FFF7CAFD01A8FFF7BFF81FA101A899
:10427000FFF7D0F8012301AA06210020FFF7BDFDBA
:1042800001A8FFF7B2F83DE047E000001A8B0008F4
:1042900052880008423A0000B001002025000000CA
:1042A000E4010020543A20000000244064656700C7
:1042B000483A20004C3A20004C7578005261696EF3
:1042C000496E6465783A200046697265496E646596
:1042D000783A2000C801002002FF0008454C4556EE
:1042E0003A200000464C41543A200000596F75278F
:1042F00064206274746572206E6F742073687574C4
:104300000000000073A101A8FFF784F8012301AAAF
:1043100007210020FFF771FDD9E0724800780328DB
:10432000FAD100206F490870FFF700FDFFF77FFE0C
:104330006D48808A192830DA01A8FFF756F86BA17A
:1043400001A8FFF767F8022301AA01212320FFF744
:1043500054FD01A8FFF749F867A101A8FFF75AF833
:10436000022301AA04211420FFF747FD01A8FFF74B
:104370003CF865A101A8FFF74DF85B49888AFFF773
:104380007DF80446214601A8FFF744F8012301AA5D
:1043900007211420FFF731FD99E05348808A322825
:1043A00030DA01A8FFF721F85BA101A8FFF732F886
:1043B000022301AA01211920FFF71FFD01A8FFF721
:1043C00014F858A101A8FFF725F8022301AA042137
:1043D0001E20FFF712FD01A8FFF707F84AA101A868
:1043E000FFF718F84049888AFFF748F80446214645
:1043F00001A8FFF70FF8012301AA07211420FFF7F6
:10440000FCFC64E03848808A4B2830DA01A8FEF7CB
:10441000ECFF47A101A8FEF7FDFF022301AA01213D
:104420001920FFF7EAFC01A8FEF7DFFF43A101A86E
:10443000FEF7F0FF022301AA04211E20FFF7DDFC96
:1044400001A8FEF7D2FF30A101A8FEF7E3FF26493D
:10445000888AFFF713F80446214601A8FEF7DAFF21
:10446000012301AA07211420FFF7C7FC2FE001A8B0
:10447000FEF7BBFF34A101A8FEF7CCFF022301AA7F
:1044800019461920FFF7B9FC01A8FEF7AEFF31A1CC
:1044900001A8FEF7BFFF022301AA04211420FFF7A1
:1044A000ACFC01A8FEF7A1FF17A101A8FEF7B2FF1F
:1044B0000D49888AFEF7E2FF0446214601A8FEF76F
:1044C000A9FF012301AA07211420FFF796FC06B0DB
:1044D000BDE8F0816F666620737570706C79206E30
:1044E0006F772100E4010020B00100204E4F2044EE
:1044F000414E4745520000002A5E5F5E2A20202A76
:104500005E5F5E2A0000000044616E676572496E5E
:104510006465783A00000000434845434B20434817
:1045200045434B005E5F5E20205E5F5E0000000042
:10453000534F4D452044414E474552002D5F2D209D
:10454000202D5F2D00000000464952452057415262
:104550004E000000212121212121212121210000C3
:104560007FB505460C4601210846FCF766FBADF811
:104570000850ADF804400020ADF80A00ADF8060080
:1045800001A94FF08040FDF7AFF8012211469007D6
:10459000FDF721FC1C208DF8000000208DF80100A3
:1045A00003208DF8020001208DF803006846FBF718
:1045B000B2FF01218807FDF7F3FB7FBD10B5012194
:1045C0008807FDF7B6FE002837D001218807FDF7E0
:1045D000C1FE1A48007880B31948007868B31948BA
:1045E000008816490978884202DB002015490880B6
:1045F0001448008812490978884203DA01201249D8
:10460000086002E00020104908601048808A4B28AA
:104610000EDB0C4800880A490978884204DA002039
:1046200009492831086003E0012007492831086062
:1046300004480088401C0349088010BD3400002055
:10464000330000202E00002094812142B001002080
:1046500070B58CB006460C46154601210846FCF79D
:10466000D2FA4D48FEF778F90196029400200390A3
:1046700004950590802006904000079080000890E7
:104680002020099000020A9000200B9001A94248C6
:10469000FEF704FA01214048FEF72BFA01213F48BA
:1046A000FCF784FD01213D48FCF7B5FD0CB070BD61
:1046B00000B587B001214FF40170FCF7B1FA4FF457
:1046C0000040FCF711FAFE20ADF8040000208DF840
:1046D000070001A93248FBF7E7FF3048FCF708FD67
:1046E0000020029001208DF80C008DF80D004FF491
:1046F000602004900020059007208DF8180002A982
:104700002648FCF71CFD0723012211462348FCF72D
:10471000AEFD0723022211462048FCF7A8FD07231F
:10472000032211461D48FCF7A2FD0723042211466F
:104730001A48FCF79CFD0723052211461748FCF791
:1047400096FD0723062211461448FCF790FD072327
:104750001A4619461148FCF78AFD01210F48FCF75B
:104760001AFD0E48FCF739FD00BF0C48FCF73AFD76
:104770000028FAD10948FCF73FFD00BF0748FCF7C5
:1047800040FD0028FAD14622064904484C30FFF784
:104790005FFF07B000BD0000080002400024014098
:1047A000000801402401002010B545F25550FEF7E5
:1047B000B3F80620FEF7B3F8FA20FEF7B3F8FEF7D9
:1047C000B9F8FEF7B2F810BD10B54848007800F00F
:1047D000010018B100204649086002E00120444968
:1047E00008604248007800F00200022804D100204E
:1047F0003F490831086003E001203D490831086065
:104800003A48007800F00400042804D10020384918
:10481000091D086003E001203549091D086033487F
:10482000007800F00800082804D1002030490C313D
:10483000086003E001202E490C3108602B48007805
:1048400000F01000102804D1012029491C3908600B
:1048500003E0002026491C3908602448407800F015
:10486000010018B1012000F0B3FC02E0002000F0CC
:10487000AFFC1E48407800F00200022803D101205E
:1048800000F0CCFC02E0002000F0C8FC17484078A3
:1048900000F00400042803D1012000F0CAFC02E06B
:1048A000002000F0C6FC1148407800F008000828FD
:1048B00003D1012000F0C8FC02E0002000F0C4FC9D
:1048C0000A4881780B48FDF707FD0848C178094878
:1048D000FDF704FD0020FFF729FA044A9379517986
:1048E0001079D21DFFF789FA10BD0000C801002021
:1048F000B08121420004004070472DE9F04F99B08B
:10490000002400201890D049888903F0ADFA0022D5
:10491000CE4BCDE9040103F009F9CDE9060103F01E
:104920001FF81590C849C88903F09EFA0022C74BAA
:10493000CDE9040103F0FAF8CDE9060103F010F81F
:104940001490C149088A03F08FFA0022BF4BCDE9C9
:10495000040103F0EBF8CDE9060103F001F8139030
:10496000B949488A03F080FA0022B84BCDE9040126
:1049700003F0DCF8CDE9060102F0F2FF1290B24933
:10498000888A03F071FA0022B04BCDE9040103F0EC
:10499000CDF8CDE9060102F0E3FF1190AA49C88ADB
:1049A00003F062FA0022AA4BCDE9040103F0ACFA4D
:1049B000CDE9060102F0D4FF1090A349088B03F063
:1049C00053FA0022A24BCDE9040103F09DFACDE990
:1049D000060102F0C5FF0F909B49488B03F0E4FDF0
:1049E0000E909949888B03F0DFFD0D909649C88B96
:1049F00003F0DAFD0C90A14600200B900A9009907C
:104A0000089082468346002500BF34E0914830F884
:104A1000140048441FFA80F98E49601C31F81010C8
:104A20000B98084480B20B908A49A01C31F81010F2
:104A30000A98084480B20A908649E01C31F81010A8
:104A40000998084480B209908249201D31F810105D
:104A50000898084480B208907E49601D31F8100023
:104A600050441FFA80FAA01D31F8100058441FFA74
:104A700080FBE01DC4B2462CC8DB0A2099FBF0F095
:104A8000754988800A210B9890FBF1F07249C88023
:104A90000A210A9890FBF1F06F4908810A210998D0
:104AA00090FBF1F06C4948810A21089890FBF1F0E5
:104AB000C0F580506849C8810A209AFBF0F0C0F523
:104AC000805008820A209BFBF0F0C882084680884C
:104AD000C98808446049098908445F4949890844EC
:104AE00085B22846E91705EB91718910C1F580510F
:104AF000594A91811046C08A5349498890FBF1F088
:104B0000012803DB64201146C88209E05248C08AAC
:104B1000642148434C49498890FBF1F04E49C882D2
:104B20004D49891C881EFEF7BBFE4B49098801F5DB
:104B3000C87003F021FD0790109903F03BFC064676
:104B40004549488803F030FD07900F9903F032FC87
:104B500007464149888903F027FD07900E9903F025
:104B600029FC80463C49C88903F01EFD07900D9939
:104B700003F020FC17903849088A03F015FD0790D0
:104B80000C9903F017FC16901699119803F020FD6C
:104B900007901799129803F01BFD41460590139852
:104BA00003F016FD39460390149803F011FD3146C9
:104BB0000190159803F00CFD0090019903F0D4FDCD
:104BC0000290039903F094FB0490059903F0CCFD47
:104BD0000690079903F08CFB18902049189803F071
:104BE000F7FC079003F0A8FC1B4988820846808ADE
:104BF000154991F82010884202DA00F088FC1FE085
:104C00001548808A104991F82110884202DA00F094
:104C100094FC15E01048808A0B4991F822108842D4
:104C200002DA00F09FFC0BE00B48808A064991F8FD
:104C30002310884202DA00F0AAFC01E000F0A7FC91
:104C400019B0BDE8F08F0000E401002000408F4063
:104C50000000244024010020B00100200000C842D0
:104C600070B594B00025002600245021684602F05B
:104C700012FE28226946FA4800F00CFB3DF81400A9
:104C80004FF6FF71884204D10020F6490870487041
:104C900007E03DF814000012F24908701DF81400F6
:104CA0004870601CC4B23DF814004FF6FF71884292
:104CB00005D15A20EB4988706E20C87007E03DF896
:104CC00014000012E74988701DF81400C870601CB9
:104CD000C4B23DF814004FF6FF71884205D114208C
:104CE000E04908710320487107E03DF81400001204
:104CF000DC4908711DF814004871601CC4B23DF80D
:104D000014004FF6FF71884203D10220D549887103
:104D100003E01DF81400D3498871601CC4B200255B
:104D200011E0A0193DF810000112CE48C01D4155F8
:104D3000A0191DF81020CB48C01D691C4254701CDE
:104D4000C6B2A81CC5B2142DEBDBA019C4B23DF845
:104D500014004FF6FF71884203D10020C249087049
:104D600003E01DF81400C0490870601CC4B23DF88F
:104D700014004FF6FF71884204D140F6EA30BA4978
:104D8000488003E03DF81400B7494880601CC4B275
:104D90003DF814004FF6FF71884203D1C820B24994
:104DA000888003E03DF81400AF498880601CC4B2DD
:104DB0003DF814004FF6FF71884203D1FA20AA494A
:104DC000C88003E03DF81400A749C880601CC4B245
:104DD0003DF814004FF6FF71884203D10520A24927
:104DE000088103E03DF814009F490881601CC4B2AB
:104DF0003DF814004FF6FF71884204D103209A4910
:104E00008872C87207E03DF8140000129649887253
:104E10001DF81400C872601CC4B23DF814004FF6AF
:104E2000FF71884203D1C8208F49888103E03DF893
:104E300014008D498881601CC4B23DF814004FF6FF
:104E4000FF71884204D14FF4FA708749C88103E0AA
:104E50003DF814008449C881601CC4B23DF81400B8
:104E60004FF6FF71884203D1C8207F49088203E0D2
:104E70003DF814007C490882601CC4B23DF814005F
:104E80004FF6FF71884204D14FF44870764948824A
:104E900003E03DF8140074494882601CC4B23DF838
:104EA00014004FF6FF71884204D140F2DC506E4985
:104EB000888203E03DF814006B498882601CC4B20C
:104EC0003DF814004FF6FF71884204D14FF448704A
:104ED0006549C88203E03DF814006349C882601C3C
:104EE000C4B23DF814004FF6FF71884204D14FF46C
:104EF0007A705D49088303E03DF814005A4908833D
:104F0000601CC4B23DF814004FF6FF71884204D112
:104F10004FF480505449488303E03DF8140052494F
:104F20004883601CC4B23DF814004FF6FF718842FC
:104F300004D140F6B8304C49888303E03DF81400B2
:104F400049498883601CC4B23DF814004FF6FF71D4
:104F5000884204D14FF4FA604349C88303E03DF826
:104F600014004149C883601CC4B23DF814004FF6D8
:104F7000FF71884207D119203B4981F82000322077
:104F800081F8210009E03DF814000012364981F84B
:104F900020001DF8140081F82100601CC4B23DF807
:104FA00014004FF6FF71884207D14B202E4981F83B
:104FB0002200642081F8230009E03DF8140000126B
:104FC000294981F822001DF8140081F8230014B04B
:104FD00070BD30B587B0002500241C21684602F062
:104FE0005AFC20480078ADF80000BDF800004FF6EC
:104FF000FF7101EA0020ADF80000BDF8000019497A
:1050000049780843ADF8000016488078ADF80200F2
:10501000BDF802004FF6FF7101EA0020ADF8020072
:10502000BDF802000F49C9780843ADF802000D48E9
:105030000079ADF80400BDF804004FF6FF7101EAF5
:105040000020ADF80400BDF8040006494979084382
:10505000ADF8040003488079ADF8060000BF20E0F9
:1050600000FF0008C8010020E40100205548415D10
:10507000201D2DF810103DF810004FF6FF7101EAC9
:105080000021201D2DF810103DF810004D496A1C1C
:10509000895C0843211D2DF81100601CC4B2A81CB6
:1050A000C5B2142DE2DB0E226946474800F003F931
:1050B00007B030BD00B589B02421684602F0EBFB93
:1050C00042480078ADF8000040484088ADF8020042
:1050D0003E488088ADF804003C48C088ADF8060022
:1050E0003A480089ADF808003848807AADF80A00DF
:1050F000BDF80A004FF6FF7101EA0020ADF80A0082
:10510000BDF80A003149C97A0843ADF80A002F48B2
:105110008089ADF80C002D48C089ADF80E002B48F1
:10512000008AADF810002948408AADF812002748DF
:10513000808AADF814002548C08AADF816002348CF
:10514000008BADF818002148408BADF81A001F48BD
:10515000808BADF81C001D48C08BADF81E001B48AD
:1051600090F82000ADF82000BDF820004FF6FF7148
:1051700001EA0020ADF82000BDF82000134991F8A5
:1051800021100843ADF82000104890F82200ADF837
:105190002200BDF822004FF6FF7101EA0020ADF8B1
:1051A0002200BDF82200094991F823100843ADF808
:1051B00022001222694604481C3000F07CF809B035
:1051C00000BD0000CF01002000FF0008E401002026
:1051D00018B10121224A116003E00021204A121F68
:1051E0001160704708B501210820FBF719FD4FF445
:1051F0007060ADF8000010208DF8030003208DF8DA
:10520000020069461748FBF74FFA4FF470611548E2
:10521000FBF7F9FA0120FFF7DBFF08BD20B1012100
:105220000F4A121F116003E000210D4A121F116086
:10523000704720B101210A4A121D116003E00021CC
:10524000074A121D1160704720B10121044A08323B
:10525000116003E00021024A08321160704700002B
:10526000A4812142000C01400146088870472DE9C5
:10527000F04105460E461746002407E036F81410A4
:105280002846FDF7D2F9AD1C601C84B2BC42F5DBA8
:10529000BDE8F08130B503460C461546002207E014
:1052A0001846FFF7E1FF24F812009B1C501C82B245
:1052B000AA42F5DB30BD2DE9F05F80468A461746ED
:1052C000B8F1006F02D33748804501D3BDE8F09FA5
:1052D000FDF763F8A8F1006B4FEA9B25CBF3480973
:1052E000C9F50074A74200DC3C464DE04FF0006178
:1052F00001EB85208A142C49FFF7CCFF00260BE038
:1053000009EB0600284931F810004FF6FF7188427A
:1053100000D003E0701C86B2A642F1DB00BFA642BB
:105320001BDA4FF0006101EB8520FDF77BF80026CA
:1053300008E03AF8160006EB09011B4A22F81100B2
:10534000701C86B2A642F4DB4FF0006101EB8520B1
:105350008A141549FFF78BFF04E022465146404668
:10536000FFF785FFA74200D10FE06D1C4FF0000949
:105370000AEB440AA044381B87B2B7F5007F02DD70
:105380004FF4007400E03C46B0E700BFFDF711F8B1
:1053900000BF9BE713B50446012201A92046FFF791
:1053A0008AFF1CBD000002080802002070472DE99A
:1053B000F041002441488588C6880789B0F80A80F2
:1053C000AC1B3F48C088A0420CDA3E4880783C497C
:1053D000097A08443B49887008468078872801DDAF
:1053E000872088703648C0884042A0420CDD35488E
:1053F00080783349097A401A3249887008468078A3
:105400004B2801DA4B208870A7EB08042C48C08891
:10541000A0420CDA2B48C0782949097A0844294966
:10542000C8700846C078FA2801DDFA20C870244800
:10543000C0884042A0420CDD2248C0782049097A49
:10544000401A2049C8700846C0784B2801DA4B2022
:10545000C8701D48007828B11A4880781A49097820
:10546000884208D00120FFF7E4FE164881781748EB
:10547000FCF732FF02E00020FFF7DBFE1448007863
:1054800028B11048C07812490978884208D0012014
:10549000FFF7DAFE0B48C1780C48FCF71FFF02E06B
:1054A0000020FFF7D1FE07488078074908700548BB
:1054B000C07807490870BDE8F0810000B001002005
:1054C000E4010020C8010020310000200004004059
:1054D0003200002008B501210820FBF7A1FB4FF2A4
:1054E0002000ADF8000010208DF8030003208DF897
:1054F000020069462E48FBF7D7F820212C48FBF71D
:1055000082F94FF470412A48FBF77BF908BD00206F
:105510002849086001202849C1F8B8012549091D1A
:10552000086024490C310860002022491C390860B9
:105530002249087022490870704701201D490860FF
:1055400000201D49C1F8B80101201A49091D086051
:1055500018490C3108603220184908700220184997
:10556000087070470120134908601349C1F8B80159
:1055700000201049091D086001200E490C31086007
:105580000A200E49087005200D4908707047012057
:10559000084908600849C1F8B8010649091D0860B2
:1055A0000220064908700120054908707047000074
:1055B000000C0140B08121420080214234000020D3
:1055C0003300002008E0002054490870FEF74FFD2A
:1055D0004FF4FA60FDF755FBF5E704E0FFF7E7FE4F
:1055E000C820FDF74EFBF9E75BE04D480078D8B9DD
:1055F000072001F0FFFE022001F0FCFE032001F075
:10560000F9FEFFF77AF9FDF737FCFDF735FC0720C7
:1056100001F061FE022001F05EFE032001F05BFE5E
:105620000020404908701CE03E48007858B901202D
:105630003C490870072001F0DDFE022001F0DAFE8F
:10564000032001F0D7FE38480078052804DB00204D
:1056500035490870FFF7B8F833480078401C3249E4
:10566000087032480078C8B10020304908702C48D2
:10567000007810B1FFF7ADFC10E0FFF71BFD00BF95
:105680002B48006800F4E0602A490843001D2849BF
:105690000860BFF34F8F00BF00BFFEE7C820FDF7D3
:1056A000F0FAA2E70DE00020234908602820FDF76A
:1056B000E8FA01202149C1F8B4014FF47A70FDF7EE
:1056C000E0FAF0E770B50446002500BF00F09CFA50
:1056D00002F030F805460723194A0021AFF23B00DB
:1056E00001F008FC0123174A0021AFF2031001F07A
:1056F00001FC0223144A0021AFF2211001F0FAFB51
:105700000323124A0021AFF2431001F0F3FB0A20F9
:1057100001F070FE284602F011F870BDE40100208F
:105720003000002035000020360000202C00002032
:105730000CED00E00000FA05B40122420000224214
:10574000040A0020040C0020040E00200410002095
:105750007CB5002514E06946284601F009FE06469E
:1057600066B9F64850F8254044B1012C06D0D4E97A
:10577000020100EB810060640198A064681CC5B25E
:10578000112DE8D97CBD002400BF02E0282001F0E3
:10579000F9FEEB4800780028F8D0EA480068642158
:1057A000B0FBF1F0E74908600846006828B900201E
:1057B000E5490870FF2001F01DFE00BF01F0BAFFAF
:1057C0000446E2480068E24908600020DF490860BA
:1057D000204601F0B3FFDE480068DA490968B0FBF3
:1057E000F1F0C0F16400D849087002F002F8FFF748
:1057F000AFFF142001F0C6FEE0E700B587B003203C
:1058000000218022D34BCDE90132CDE903104FF6C0
:10581000FE701023D04A0090AFF2950001F0C1FB5A
:1058200006AACEA1102001F025FD07B000BD00247E
:1058300000BF00BF01F07EFF0446C4480068401C62
:10584000C2490860204601F079FF01F0D1FFF1E77D
:1058500000B587B0032000218022C44BCDE901327E
:10586000CDE903104FF6FF701123C14A0090AFF24B
:10587000410001F096FB06AABEA1112001F0FAFC3E
:1058800007B000BD04E0002200F8012B4A1E91B2CF
:105890000029F8D1704770B5A021BA48FFF7F2FF90
:1058A00000230BE0581C85B2B64800EB031400EB54
:1058B0000516002020706660581C83B2092BF1D3B6
:1058C000B04800EB0314002020706060AD48AE4982
:1058D000086070BD70B54FF47C71AC48FFF7D2FF23
:1058E00048219648FFF7CEFF002413E0601CC5B2A4
:1058F000C4EBC40000EB4000A44901EB8003C5EBFE
:10590000C50000EB400001EB80065E61A0A0D864FA
:10591000601CC4B20B2CE9D3C4EBC40000EB400004
:105920009A4901EB80030020586199A0D8640020B7
:105930009849086095489849086070BD0021974AC9
:105940001170002004E00021954A1154411CC8B296
:105950000328F8D30021934A1170934A1170934A97
:105960001160934A11607047002092490860924983
:1059700008709249087092490870924908709249DB
:10598000086072490860724908606E4908606C4995
:105990000870704710B501F027FFFFF7E5FFFFF72C
:1059A000CDFFFFF797FFFFF776FF00F0E7FE01F06E
:1059B000DEF9FFF74DFFFFF720FF01F016FF10BDE6
:1059C00080480078012808D17B480078FF2804D25D
:1059D00079480078401C7849087070477B496F4AC5
:1059E0001278885C6E49095C784A515C01EBC00111
:1059F0006D4A1170704710B5002472480078012874
:105A000030D101F097FE04466B48007820B16A4817
:105A10000078401E6849087067480078F8B9674800
:105A20000078E0B9FFF7DAFF44485F49097850F899
:105A300021005E4908605C4800785A49097888422C
:105A40000DD05A480068806B401C5849096888632B
:105A50005D480068401C5C49086001F08AFE2046F1
:105A600001F06CFE10BD10B50024564800780128E6
:105A700011D101F05FFE04464F48007840B94F480D
:105A80000078FF2804D24D480078401C4B4908702C
:105A9000204601F053FE10BD10B5002401F04AFE6F
:105AA000044645480078F8B944480078E0B9FFF763
:105AB00095FF22483C49097850F821003B4908608D
:105AC000394800783749097888420DD0374800684E
:105AD000806B401C3549096888633B480068401C5E
